:1018000012C021C020C01FC01EC01DC01CC01BC0F4
:101810001AC019C018C017C016C015C014C013C014
:1018200012C011C010C011241FBECFE5D4E0DEBF2E
:10183000CDBF21E0A0E6B0E001C01D92AF33B207FA
:10184000E1F7A8D1F7C1DCCF0F931F93CF93DF93BC
:101850001FB7F89426E0660F771F881F991F2A95F7
:10186000D1F7E199FECFEB0123E0FB012093570074
:10187000E89507B600FCFDCFDA0120E030E001E09A
:101880004D915D91F901EC0FFD1F0A010093570086
:10189000E89511242E5F3F4F2034310589F725E06C
:1018A000FB0120935700E89507B600FCFDCF81E1CE
:1018B00080935700E8951FBFDF91CF911F910F9143
:1018C000089528E087FF02C0C39A01C0C398C59A53
:1018D000990FB4999160C598880F215099F7892F75
:1018E0000895CF93C82FC298892FEBDF8C2FE9DFA3
:1018F000C29ACF910895CF93DF931F92CDB7DEB7F1
:10190000C2986983DEDF6981862FDBDFC29A0F9080
:10191000DF91CF910895C29880EBD3DF80E0D1DFD3
:10192000C29A0895CF93DF93C29880E0CADFC82F90
:10193000D0E0DC2FCC2780E0C4DFC29A9E01282BA8
:10194000C901DF91CF910895CF9392B320E29227FE
:1019500092BBC298C39898E0C59A880FB4998160E9
:10196000C5989150C9F7C29A87FF75C080916200EF
:101970008130F1F020F0823009F44CC063C0C1E046
:10198000C0936500C8DF8093610093E0980F909347
:101990006400E09166002CE4E29FF0011124E85914
:1019A000FF4F908191114EC0C0936200818353C05C
:1019B00020916500909164002917F0F4ACDF20912C
:1019C0006100282720936100909165009B3420F0EE
:1019D0009F5F909365003FC0E09166003CE4E39F09
:1019E000F0011124E759FF4FE90FF11D8083923078
:1019F00079F72F3F39F5ECCF909166002CE4929F58
:101A0000F0011124E859FF4F22E0208389278093B9
:101A1000660018C0E091650080916400E81750F4FA
:101A200081E08E0F80936500F0E0E050FF4F608111
:101A300088EB0FC01092630081E892E852DF6AEAF7
:101A400088EB59DF1092620061E88AEC54DF63E8AA
:101A50008AECCF9150CFCF9108958091620081118F
:101A60001AC0809163008130B1F481E092E839DFDF
:101A7000809102018A5F809364001092650082E089
:101A8000809362008AEA98EB2CDF8AEA98EB29DFE0
:101A900081E292E826CF08959091630091110DC0E4
:101AA000609302018093030186278095809304014F
:101AB00081E08093630080E8089583E00895CF93E8
:101AC000DF93C82FD62FBA018B3370F48091630057
:101AD00081110CC04C2F50E085E091E09AD06C2F22
:101AE0008D2FDF91CF91D8CF82E001C083E0DF91CD
:101AF000CF910895A7E6B0E09C918CE4989FF00107
:101B00001124E859FF4F108281E089278C930895B2
:101B1000C29ABA9ABB9ABD9AC29ABA9ABC9887EDF1
:101B200090E8DFDE81E092E8DCDE80E296EAD9DE52
:101B300083E296ECD6DE8CE294E9D3DE8BEA92EC7B
:101B4000D0DE81E89AECCDDE87EF94ECCADE80E748
:101B500098E9C7DE80E098ECC4DE80E090EEC1DE5C
:101B60008DE28093000184ED809301011092660064
:101B70001092670081E892E8B4DE85B7826085BF85
:101B8000D1DE8AB780648ABF81E89AECAADE83E856
:101B90009AECA7CECF93DF93CDB7DEB7A0970FB661
:101BA000F894DEBF0FBECDBF81B3806E81BB979A24
:101BB00080E090E037D080936000F89481E085BFAA
:101BC00082E085BFA5DFA4DFA3DFA2DF7894C12C6C
:101BD000D12C7601C39412E000E68FEFC81AD80A20
:101BE000E80AF80AD701C601AA27BB27892B8A2B46
:101BF0008B2B69F41983809160008A83AE014F5F5B
:101C00005F4F60EE82E05BDF82B3802782BB25DF1F
:101C1000E4CFFB01DC0102C001900D924150504025
:101C2000D8F70895E199FECF9FBB8EBBE09A992724
:081C30008DB30895F894FFCF75
:0400000300001800E1
:00000001FF
